:100000000C9430030C9477030C9477030C947703CF
:100010000C9477030C9477030C9477030C94770378
:100020000C9477030C9477030C94D2280C94A42995
:100030000C941D230C9477030C9477030C94770392
:100040000C9477030C944F100C9477030C94770363
:100050000C9474100C9491230C9477030C947703F4
:100060000C9477030C9477030C9477030C94770328
:100070000C9477030C9477030C9477030C94770318
:100080000C9477030C9477030C9477030C94770308
:100090000C9477030C9477030C9477030C947703F8
:1000A0000C9477030C9477030C947703C00EC30E63
:1000B000CB0ED00ED50EDA0EDF0EE40EE90EEE0EEC
:1000C000F30EF80EFA0EFD0E000F030F060F090FC8
:1000D0000B0F100FCA12CD12F2120D1315132113AC
:1000E00024132B1332137E13811337133A133F1348
:1000F0004D135B135E13621370134019401972198C
:100100007219BF19FD1AFD1AFD1ADF197C1A8D1A12
:100110008D1AED1AFD1AFD1AF61A7B1B7B1B8D1B1F
:100120008D1B841B8D1B8D1B8D1B7B1B7B1B891BC0
:100130008D1B8D1B891B112A382A2A2B382A2A2B22
:10014000842AA72A2A2BFD2A0C2B165C1E001F00CE
:1001500020002100220023000000240025002600AA
:1001600027002D002E00350029002B0014001A0056
:100170000800150017001C0018000C0012001300E6
:100180002F00300031004B00E00004001600070093
:1001900009000A000B000D000E000F0033003400B0
:1001A00028002A004E00E1001D001B000600190077
:1001B0000500050011001000360037003800E5008A
:1001C00001510000E3000000E20000002C00E30009
:1001D00000002C000000E600000000000000E40029
:1001E0000100010001000100010001000100000008
:1001F00001000100010001000100010001000100F7
:1002000001000100010001000100010001000100E6
:100210000100010001005200010001000100010085
:1002200001000100010001000100010001000100C6
:10023000010050004F000100010001000100010019
:1002400001000100010001000100010001000100A6
:100250000100510001000100000001000000010048
:10026000000001000100000001000000010000008A
:1002700000000000010000000000000000002A2B28
:100280002800000000000000000000000000000046
:100290000029000000002C1E3420212224342627AF
:1002A000252E362D3738271E1F20212223242526D0
:1002B0003333362E37381F0405060708090A0B0C9E
:1002C0000D0E0F101112131415161718191A1B1CE6
:1002D0001D2F3130232D350405060708090A0B0CA4
:1002E0000D0E0F101112131415161718191A1B1CC6
:1002F0001D2F3130354C00000000000000000000D0
:10030000000000000000000000007E0F00D4FFFF8E
:10031000FFC70000007800047F3F1F64321464327E
:1003200014783C1E1E140A052223252628292A2C6F
:100330002D2F3032333536383A3B3D3E404243452F
:1003400047494A4C4E5051535557595A5C5E60626A
:10035000646668696B6D6F71737577797B7D7F817A
:10036000838587898A8C8E90929496989A9C9E9F7A
:10037000A1A3A5A7A8AAACAEAFB1B3B4B6B8B9BB98
:10038000BCBEBFC1C2C3C5C6C7C9CACBCCCDCED007
:10039000D1D2D2D3D4D5D6D7D7D8D9D9DADADBDBF4
:1003A000DBDCDCDCDCDCDDDDDDDDDCDCDCDCDCDB8B
:1003B000DBDBDADAD9D9D8D7D7D6D5D4D3D2D2D1D4
:1003C000D0CECDCCCBCAC9C7C6C5C3C2C1BFBEBCC7
:1003D000BBB9B8B6B4B3B1AFAEACAAA8A7A5A3A138
:1003E0009F9E9C9A98969492908E8C8A89878583FA
:1003F000817F7D7B79777573716F6D6B69686664DA
:1004000062605E5C5A5957555351504E4C4A4947A9
:10041000454342403E3D3B3A3836353332302F2D4E
:100420002C2A292826252322FFAA7F5540000101D6
:1004300001010101010101020202020202020202A3
:100440000303030303030303040404040404040573
:100450000505050506060606060707070707080837
:100460000808090909090A0A0A0B0B0B0C0C0C0DE8
:100470000D0D0E0E0E0F0F0F101011111112121381
:10048000131414151516161717181819191A1A1BFC
:100490001B1C1D1D1E1E1F2020212222232424255B
:1004A0002626272829292A2B2C2D2D2E2F30313294
:1004B00032333435363738393A3B3C3D3E3F4041A4
:1004C00042434445464748494A4C4D4E4F5051538C
:1004D00054555658595A5B5D5E5F61626465666843
:1004E000696B6C6D6F7072737577787A7B7D7E80C7
:1004F00082838587888A8C8E8F91939596989A9C13
:100500009EA0A2A3A5A7A9ABADAFB1B3B5B7BABC26
:10051000BEC0C2C4C6C9CBCDCFD1D4D6D8DBDDDFF7
:10052000E2E4E7E9EBEEF0F3F5F8FAFDFF0403305F
:10053000000000180341006C0069006300650020A2
:100540000043006C006F006E00650000000C03614A
:10055000007300740072006F0000000403090409B6
:10056000025B00030100A0FA09040000010301017D
:100570000009211101000122400007058103080044
:100580000A09040100020300000009211101000111
:100590002222000705820320000107050303200033
:1005A00001090402000103000000092111010001FA
:1005B0002232000705840320000A12011001000006
:1005C000000800AC60000100010203010660FF09A1
:1005D00061A1010962150026FF00952075088102BE
:1005E0000963150026FF00952075089102C00501DA
:1005F0000980A101850319012AB700150126B7005A
:10060000950175108100C0050C0901A1018504192F
:10061000012AA002150126A002950175108100C0D3
:1006200005010906A101050719E029E715002501C3
:10063000950875018102950175088101050719006A
:1006400029FF150026FF0095067508810005081989
:10065000012905950575019102950175039101C068
:1006600011241FBECFEFDAE0DEBFCDBF04B603FE1C
:1006700027C08091E4029091E502A091E602B0913A
:10068000E7028730904BA740B04BD1F41092E402C0
:100690001092E5021092E6021092E70214BE84B7AF
:1006A000877F84BF0FB6F894A89580916000886119
:1006B00080936000109260000FBEE0E0F8E30995BF
:1006C00011E0A0E0B1E0E2E9F8E502C005900D928A
:1006D000A83CB107D9F722E0A8ECB1E001C01D9217
:1006E000A43EB207E1F70E9482250C94472C0C949B
:1006F0000000579A249A569A08950E9479030C9400
:100700008C17CF93C82F0E940805882379F0C0FF6B
:1007100002C05F9A01C05F98C1FF02C02C9A01C05D
:100720002C98C2FF02C05E9A01C05E9881E0CF9112
:10073000089581E0089581E008950C949B031F9330
:10074000CF93DF9300D000D01F92CDB7DEB749839F
:100750005A832091EE0189819A81211112C066236A
:1007600049F00E94A020182F682F89819A810E9449
:10077000452003C00E947420182F69817A81812F3F
:1007800004C00E94A02069817A810F900F900F9081
:100790000F900F90DF91CF911F910C947014FC017A
:1007A000408151816281738184810C949F03FF9207
:1007B0000F931F93CF93DF93E82FF0E0EA58FD4F9C
:1007C000F490C82FC695C695C695D0E0FE01EA5FA5
:1007D000FC4F0491877010E0082E02C01595079514
:1007E0000A94E2F701701127FE01EA50FD4FC4910F
:1007F000D0E002C0D595C7958A95E2F7C170DD2794
:100800000115110519F081EE0E948C18209719F03E
:1008100086EE0E948C188F2D0E94ED18CD2B19F0BA
:1008200086EE0E94C118012B41F081EEDF91CF913D
:100830001F910F91FF900C94C118DF91CF911F91E0
:100840000F91FF900895EF92FF920F931F93CF9314
:10085000DF93EC01162F0AE08881882309F457C042
:10086000813009F045C08981813051F47E0182E0F8
:10087000E80EF11CCA818C2F0E948C188C2F12C09C
:10088000823049F47E01E2E0EE0EF11C8A810E9482
:100890008C18E7012FC0833041F47E01F2E0EF0EA7
:1008A000F11C8A810E94C118F4CF843011F0219686
:1008B00021C02A81229680E090E030E02053310967
:1008C0002A30310558F4089FA001099F500D1124CA
:1008D000CA01820F931F21962881EFCF009751F014
:1008E000EFE9FFE03197F1F700C000000197F6CF84
:1008F0000E94D7032196812F882309F4ADCFEFE919
:10090000FFE03197F1F700C000008150F5CFDF9193
:10091000CF911F910F91FF90EF90089560E00C949C
:1009200023048F929F92AF92BF92CF92DF92EF9269
:10093000FF920F931F936B017C0181E090E0A0E098
:10094000B0E04C015D0104C0880C991CAA1CBB1CC2
:100950004A95D2F7AC01BD0104C0440F551F661F74
:10096000771F2A95D2F7482959296A297B2904C07B
:10097000880F991FAA1FBB1F0A95D2F78A019B01F6
:100980000C211D212E213F210417150726073707AB
:1009900039F4BC01CD016C297D298E299F290AC01B
:1009A00080959095A095B095BC01CD016C217D21DD
:1009B0008E219F211F910F91FF90EF90DF90CF909C
:1009C000BF90AF909F908F9008950F93382F262F50
:1009D0006091590270915A0280915B0290915C0281
:1009E000042F432F0E9491040F910C94811F0E94A9
:1009F0009E110E94D621811102C00E947F220E9476
:100A00001B110C9463070C94660708950C9405055C
:100A100081E00895CF93C82F0E9406058C2F0E9475
:100A20008103CF91089508950E946B1B0E941305C6
:100A30002FEF84E39CE0215080409040E1F700C01C
:100A400000000C94B7230F931F93CF93DF93EC0117
:100A50000E94CF038C01BE010E94D3118823D9F1DB
:100A6000BE01C8010E949D038823A9F1BE01C801EF
:100A70000E941A0F882379F1BE01C8010E949F15B8
:100A8000882349F1BE01C8010E94E015882319F1AD
:100A9000BE01C8010E940B178823E9F0BE01C801FE
:100AA0000E94A90E8823B9F08A81882369F0011574
:100AB0008CE5180731F00E3D1C4531F40E947F2271
:100AC0000AC00E94140507C0CE01DF91CF911F918B
:100AD0000F910C94990380E0DF91CF911F910F91BA
:100AE000089580E090E008950895880F991FFC0113
:100AF000EA5EFC4F859194910895CF93DF930E9415
:100B000070140E948B06EC01811520E5920708F015
:100B100041C0811530E4930708F0C7C0803E9105BD
:100B200020F5803C910508F0B1C0883A910570F439
:100B3000853A910508F0A2C08130910509F4E7C01B
:100B400008F4E3C0049708F0E2C0DFC08F3B9105D2
:100B500008F0DBC0C85AD0E0CC0FDD1FC35EDE4F0B
:100B60000990D881C02DD464D2C0811540E2940789
:100B700050F4C11581E0D80708F0C9C0C83ED105BE
:100B800008F4C5C0C2C0811520E3920708F084C0F4
:100B90009F707EC0811535E5930708F044C081152C
:100BA00044E5940708F098C0C11582E5D80708F518
:100BB000C11521E5D20708F07BC08C2F837021E09E
:100BC00030E002C0220F331F8A95E2F73C68CE0165
:100BD00074E0969587957A95E1F78370382BCF70FE
:100BE000C695C69580E2C89FE0011124C22BD32B85
:100BF0008EC02C2F26952695CE0183709927C1157E
:100C0000D34508F05AC040E2249F90011124C1E06E
:100C1000D0E002C0CC0FDD1F8A95E2F72C2B3D2BD4
:100C2000E901DC6874C0811549E59407A0F4C11599
:100C300088E5D80708F055C0C11526E5D20708F0A9
:100C400064C08C2F0E941F078F71C82FD0E0DC2F4B
:100C5000CC27D0625CC081153AE5930708F446C002
:100C600090568115904208F050C08D2F8F710E94D0
:100C70001F07DD27D0628F71D82B49C0C55AD0E03D
:100C8000C55BDE4FC881D0E0D06441C0805C910973
:100C90000E947505EC013BC09927D3FF03C0EC010E
:100CA000D86C35C0EC01D06C32C0DF70D06A2FC078
:100CB000DC2FCC27C16FD06A2AC040E2249F90016C
:100CC0001124C1E0D0E002C0CC0FDD1F8A95E2F70D
:100CD000C22BD32BDA681BC0D82FCC27C46FD06AA5
:100CE00016C0DC2FCC27C06FD06A11C08F700E9455
:100CF0001F0794E0D695C7959A95E1F7CF70D0E09D
:100D0000DC2FCC27D069C82B02C0C0E0D0E0CE01D8
:100D1000DF91CF9108958238910569F1B0F4813364
:100D2000910509F46DC048F48932910509F463C056
:100D30008A32910509F469C008958533910509F453
:100D400055C089339105B9F00895833E910569F145
:100D500038F4803E9105B1F0823E910509F1089585
:100D6000863E9105A9F1873E9105B9F1843E910532
:100D700009F064C023C02091D50220FD4FC021FDA1
:100D80004DC008958091D50280FD44C08091D60267
:100D900080FF44C08091D50284FD42C083EE4DC0E7
:100DA0008091D50282FF38C0F5CF8091D50282FDB7
:100DB00033C08091D60280FD31C0ECCF8091D60245
:100DC00081FF32C08091D50284FD2AC087EE35C0F4
:100DD0008091D50283FF26C0F5CF8091D50283FD97
:100DE00021C08091D60281FD1FC0ECCF8091D50239
:100DF00085FD1CC01DC08091D50285FD19C016C09F
:100E00008091D50286FD16C017C08091D50286FD5F
:100E100013C010C089E311C082EE0FC080EE0DC078
:100E200080E00BC086EE09C084EE07C089E205C0F1
:100E300085E303C08AE201C081E390E008959091C8
:100E4000D50292FF0DC0282F2871283019F4877F12
:100E5000846006C0282F2471243011F48B7F8860B1
:100E600093FF0DC0282F2871283119F4877E8461E3
:100E700006C0282F2471243111F48B7E88612091C3
:100E8000D60220FF0DC0382F3871383019F4877F13
:100E9000816006C0382F3171313011F48E7F886047
:100EA00021FF0DC0282F2871283119F4877E816118
:100EB00006C0282F2171213111F48E7E886194FDA6
:100EC000877E089508950C94620708950C94650731
:100ED000E82FF0E0EE0FFF1FEB57FD4F808191816F
:100EE0000895089580EA8A95F1F70895ADE5B1E097
:100EF00041E050E025E02A0F8D91E82FE295EF7058
:100F0000F0E031A18F70BA0102C0660F771F8A9599
:100F1000E2F7CB01962F9095932391A392A1892B71
:100F200082A32A13E9CFAEE4B1E041E050E02FE024
:100F30002A0F8D91E82FE295EF70F0E031A18F70CC
:100F4000BA0102C0660F771F8A95E2F7CB01962F90
:100F50009095932391A392A1892B82A32A13E9CF81
:100F6000EBE7F2E0A5E8B2E0119211921D921D921A
:100F700072E0E538F707C1F785E00E9456080C9447
:100F8000F7044F925F926F927F928F929F92AF92EF
:100F9000BF92CF92DF92EF92FF920F931F93CF9366
:100FA000DF938DE5A82E81E0B82E0BE712E0D12C5F
:100FB00088248394912C3801D8014D905C9011972E
:100FC0001D921C92F50181915F01C82FC295CF70CF
:100FD000D0E099A18F70740101C0EE0C8A95EAF7F8
:100FE000892F8E2989A38AA1CE2CC0948C218AA313
:100FF0000E947207EEE4F1E080E090E06191A62F9C
:10100000A295AF70B0E090964C91D8012D913C9193
:1010100050E06F7002C0559547956A95E2F740FD24
:1010200008C0A401082E02C0440F551F0A94E2F71D
:1010300002C040E050E0242B352BD8012D933C9387
:1010400001968F309105D1F689A1C822C9A28AA143
:10105000E82AEAA20E5F1F4F81E0F301208131816F
:101060004216530609F480E0D82AF2E005381F073B
:1010700009F0A1CF2D2D45E065E872E08BE792E005
:101080000E9457080E9403058D2DDF91CF911F917B
:101090000F91FF90EF90DF90CF90BF90AF909F9017
:1010A0008F907F906F905F904F9008950895FF927A
:1010B0000F931F93CF93DF93F82E092F162FD72F5F
:1010C000C42F222349F081E08093CA010E944F235C
:1010D0009093C9018093C8018091CA018823D9F0F7
:1010E0008091C8019091C9010E946723069798F0EA
:1010F000EF2DF02FA12FBD2F80E090E04C2F50E07E
:101100008417950734F4219131912D933D930196E5
:10111000F7CF1092CA01DF91CF911F910F91FF90ED
:101120000895AF92BF92CF92DF92FF920F931F93D9
:10113000CF93DF93D62E372FE82FF0E0711106C042
:10114000E35DFB4F6491762F862F75C0C72FD0E0EB
:10115000E35DFB4F2491F22E022F10E046E0649FE6
:10116000C0011124EFEFF0E0BF010E947C2BAB0126
:101170006BEA6403C001659F900D11248D0D911DD4
:101180008D0D911D982F990F890FDF01AC1BBD0BA1
:101190000A9FB0010B9F700D1A9F700D1124972F9D
:1011A000839FD0011124AB2FBB276F01CA1ADB0A22
:1011B0000C9DD0010D9DB00D1C9DB00D11245F0143
:1011C000A81AB108AC9E6001AD9ED00CBC9ED00C9C
:1011D0001124CD2DDD27EC1BFD0B0E9FE0010F9F91
:1011E000D00D1E9FD00D1124ED2F4230510591F0EE
:1011F0004CF441155105E1F041305105B9F4E22FAD
:101200002B2F16C04430510569F044F0463051058B
:1012100079F00CC0E22F272F9D2F0AC0272F9F2D7A
:10122000EB2F06C0E72F922F2D2F02C0E72F9B2F09
:101230006E2F722F892FDF91CF911F910F91FF9009
:10124000DF90CF90BF90AF9008950895CF93DF9334
:10125000762FE901682F842F0E9491087983688393
:101260008A83DF91CF910895413808F040E80C94CB
:10127000260980918F02282F269530E0211531050F
:1012800019F48170826005C02532310524F0817027
:10129000886480938F0280919202813818F080E8F0
:1012A00080939202089588E090E00C94072CCF93ED
:1012B000DF9300D000D0CDB7DEB7AB01BC014983CE
:1012C0005A836B837C830E94390949815A816B81DF
:1012D0007C8188E090E00F900F900F900F90DF914D
:1012E000CF910C94252C60918F0270919002809187
:1012F0009102909192020C945709EFE8F2E083E09A
:10130000808311828FEF828380E8838314826081DF
:101310007181828193810C94570980918F0280FFA3
:1013200002C08695089580E00895809193028330ED
:1013300018F48F5F8093930260918F0270919002F6
:1013400080919102909192020C945709809193029E
:10135000882319F081508093930260918F027091DD
:10136000900280919102909192020C945709809181
:1013700093020895809393020895809190020895B6
:1013800080919102089580919202089560910401E4
:1013900070E080918F0280FF0AC08091CF0123E02E
:1013A000829FC00111248C569D4F0C945F11809137
:1013B000CE0190910301891780F7E82FF0E09F019B
:1013C000220F331FE20FF31FEC56FD4F11821082E4
:1013D00012828F5FF0CF90918F0290FF16C0909194
:1013E000CE0120910301921770F4E92FF0E0DF01A4
:1013F000AA0FBB1FEA0FFB1FEC56FD4F81836083D2
:1014000042839F5FF0CF0C94C6090895CF93DF937A
:1014100000D01F92CDB7DEB790918F0290FF0AC027
:101420009E012F5F3F4F0E9434094B8169818A8161
:101430000E94EB090F900F900F90DF91CF910895CC
:10144000CF93DF93EC01EC81F0E0E85DFC4F449139
:10145000EFE8F2E0628181810E94060A8C818F5F51
:101460008C83DF91CF910895CF93DF93EC01EFE868
:10147000F2E0438162818C810E94060A8C818F5F39
:101480008C83DF91CF9108950F931F93CF93DF93B8
:1014900000D01F92CDB7DEB78C018091CB018111B6
:1014A0000AC09E012F5F3F4F40E86FEF0E94340952
:1014B0008A818093CB01F8018481813051F028F03A
:1014C000823061F44091CB010AC08091CB0140E0B1
:1014D00007C06091CB0140E080E003C040E080E0C5
:1014E00060E00E94EB09F801248130E0C901019617
:1014F00063E070E00E94902B84830F900F900F9018
:10150000DF91CF911F910F910895AF92BF92CF922B
:10151000DF92EF92FF920F931F93CF93DF9300D050
:101520001F92CDB7DEB7182FF62E042FE22E909122
:101530008F0290FF6EC0E92FE695AE2FB0E0AE5956
:10154000BE4F8C918093D7019E7F923061F49E01B3
:101550002F5F3F4F812F0E9434094B8169818A811F
:101560000E94EB0944C0823019F4009192023FC0FE
:10157000863019F4109190023AC08930D9F389313C
:10158000B1F5E9518E2F8170D82EE695F0E0E85D37
:10159000FB4FA590B490C12CBB2460910201C616EC
:1015A00020F5EC2DF0E0EA9DC001EB9D900DFA9D39
:1015B000900D112470E00E947C2B812FD11002C06D
:1015C000860F01C0861B9091CE01E90FF11D9F018E
:1015D000220F331FE20FF31F9F012C563D4F402F68
:1015E0006F2D0E943409C394D8CF0E94C60910936E
:1015F0009002F092910200939202EE2051F06091DD
:101600008F027091900280919102909192020E94BB
:1016100057090F900F900F90DF91CF911F910F916D
:10162000FF90EF90DF90CF90BF90AF900895EFE8DC
:10163000F2E09181282F4381628188E0890F0C9428
:10164000850A81E00C94170BEFE8F2E09181282FD6
:101650004381628188EF890F0C94850A81E00C94A4
:10166000240BEFE8F2E0628128E0620F08F46FEFEC
:10167000282F438181810C94850A81E00C94310BE1
:10168000EFE8F2E0628128E0621B08F460E0282FB6
:10169000438181810C94850A81E00C94400BEFE832
:1016A000F2E0438128E0420F08F44FEF282F6281D7
:1016B00081810C94850A81E00C944F0BEFE8F2E0F5
:1016C000438128E0421B08F440E0282F6281818199
:1016D0000C94850A81E00C945E0B20E00C94850A42
:1016E000FF920F931F93CF93DF93EC01F12C0FEF39
:1016F00010E060910201F616E8F42091CE0130E08E
:101700002F0D311DC901880F991F280F391F2C5625
:101710003D4F70E0C8010E94902B962F8C81409124
:10172000920260919102F99E800D11240E94340969
:10173000F394DFCF0E94C6099A818C8190FF02C08A
:101740008F5F01C081508C83DF91CF911F910F91EA
:10175000FF900895AF92BF92CF92DF92EF92FF92E7
:101760000F931F93CF93DF93FC01828180FF02C010
:101770000FEF01C001E010E044E1A42E80910201CE
:10178000181708F043C0C12ED12C8091CE01E6017C
:10179000C80FD11DCE01880F991FC80FD91FCC5675
:1017A000DD4F198218821A8234E0E32EF12CB12C1D
:1017B0008091CD018B0D85312CF06A2D0E946E2B0E
:1017C000892F05C087FF03C090910201890F082E61
:1017D000000C990BC816D90691F4809192028E9D47
:1017E000A0018F9D500D112455954795559547950E
:1017F0009E0160919102809190020E943409B00E86
:10180000F1E0EF1AF108A1F61F5FB8CF0E94C609F8
:101810008091CD01013031F4811102C0809102012B
:10182000815007C090E001966091020170E00E9433
:10183000902B8093CD01DF91CF911F910F91FF905D
:10184000EF90DF90CF90BF90AF900895CF938091AD
:10185000CE0190910301891770F4E82FF0E09F0109
:10186000220F331FE20FF31FEC56FD4F118210823F
:1018700012828F5FF0CFC0E060910201C617B8F509
:10188000EC2FF0E070E0CF010E94902B4091CE0150
:10189000480F8091CC01082E000C990B50E0E817FE
:1018A000F907C4F020910101022E000C330B2E1712
:1018B0003F0784F09A01220F331F240F351F2C5647
:1018C0003D4F4091920260919102809190020E945E
:1018D00034090BC0FA01EE0FFF1F4E0F5F1FFA0114
:1018E000EC56FD4F118210821282CF5FC5CF0E944D
:1018F000C609209100018091CC01820F8093CC0118
:1019000090910101920F9093010119165CF4082E39
:10191000000C990B4091020150E04150510984178D
:1019200095071CF0219520930001CF9108950F9306
:101930001F93CF93DF938C01FC01848195810196E5
:101940008170992795838483C0E0D5E58091020159
:10195000C817F8F42091CE0130E02C0F311DC901D9
:10196000880F991F280F391F2C563D4F4C2F469535
:10197000F80184819581840F911D817040919202BC
:10198000609191028D9F802D11240E943409CF5FB8
:10199000DDCFDF91CF911F910F910C94C6090F936A
:1019A0001F93CF93DF93EC0100E010E080910201E0
:1019B000282F30E00217130724F59091CE019801EB
:1019C000290F311DA901440F551F240F351F2C5617
:1019D0003D4F869590E04C81081719071CF444236D
:1019E00031F002C0411103C04091920201C040E0B9
:1019F00060919102809190020E9434090F5F1F4F05
:101A0000D5CF0E94C6092C8130E02F5F3F4F217057
:101A100033272C83DF91CF911F910F910895EFE829
:101A2000F2E080818E7F80836081718182819381E9
:101A30000E9457091092D8012FEF80E792E02150C1
:101A400080409040E1F700C000000C94C609EFE828
:101A5000F2E080818E7F80831092D8012FEF80E7A3
:101A600092E0215080409040E1F700C000000C94CB
:101A7000C60960918F02669570E04BE050E085E00A
:101A800091E00E94F22B892B19F481E08093D80118
:101A90000E944F239093D1018093D001089590919B
:101AA0008F0290FF35C09170811102C0926006C014
:101AB000853210F0986402C0880F982B90938F02A3
:101AC000662351F060918F02709190028091910293
:101AD000909192020E94570960918F02669570E082
:101AE0004BE050E085E091E00E94F22B892B19F049
:101AF0001092D80102C00E94390D81E08093D30179
:101B00004091920260919102809190020C946D0B31
:101B10000895682F90918F02969581E0890F853204
:101B200008F081E00C944F0D81E00C94890D682F32
:101B300090918F0296958FEF890F09F484E20C94AF
:101B40004F0D81E00C94970D61E00C944F0DEFE880
:101B5000F2E080818160808386950C94A40D809151
:101B60008F0280FD0C940F0D0C94A70D60E00C9477
:101B70004F0D8091D60181112EC00E94D621811176
:101B800004C00E947F220E947D090E945309609335
:101B90008F027093900280939102909392026E7FD5
:101BA00061F40E947D090E94530960938F02709333
:101BB000900280939102909392020E9439091092B0
:101BC000D80180918F0280FF03C086950E94B60DD8
:101BD00081E08093D6010895EFE8F2E08081816092
:101BE000808386950C94B60D0F931F93CF93DF934C
:101BF0008091D801882309F48CC08091D701E091AD
:101C00008F02E695E81BE093D201823049F4F0E0C0
:101C1000EC5DFC4FE491CE2FD0E000E21AE049C029
:101C2000863049F4F0E0EF5DFC4FE491CE2FD0E038
:101C300004E31AE03EC0893051F4E695F0E0E25E3C
:101C4000FC4FE491CE2FD0E000E71BE032C08F3094
:101C500051F4E695F0E0E55EFC4FE491CE2FD0E044
:101C60000AEA1BE026C0853149F4F0E0E85EFC4F4B
:101C7000E491CE2FD0E006E21CE01BC0883181F059
:101C8000833239F4E6E1F3E0C591D49104E41AE03B
:101C900010C0843251F4C4EFD1E00FEC1CE009C055
:101CA000C8EED3E007E91CE004C0C0EDD7E005E2D0
:101CB00019E08091D301882389F01092D3010E940A
:101CC0004F239E0120953095820F931F9093D10151
:101CD0008093D0011092D5011092D4018091D0014F
:101CE0009091D1010E9467238C179D0790F0E0919D
:101CF000D001F091D101CE0FDF1FD093D101C0935D
:101D0000D00180ED91E0F801DF91CF911F910F910B
:101D10000994DF91CF911F910F910895882311F0BD
:101D2000FA0101C0FB010994CF93DF93C82FD62F8E
:101D30000E948D098C1740F00E948D098D1720F4A8
:101D4000DF91CF910C94940D8C2FDF91CF910C9457
:101D5000A40D0F931F93CF93FB01C281CC2309F4F1
:101D600063C08C010E9420218272F801E25CFC4574
:101D7000E431F10508F059C0EA5AFF4F0C94C62B24
:101D80000E94AF0D06C041EA5DE064E97DE00E947B
:101D90008E0EC0E04AC044E95DE061EA7DE0F7CF25
:101DA0004EE25BE061E27BE0F2CF41E25BE06EE2BB
:101DB0007BE0EDCF4CE45BE06DE37BE0E8CF4DE30F
:101DC0005BE06CE47BE0E3CF4AE65BE06BE57BE065
:101DD000DECF4BE55BE06AE67BE0D9CF46EA59E02F
:101DE00065E979E0D4CF45E959E066EA79E0CFCFFB
:101DF00081E017C065E082E010C068E086E00DC0B9
:101E00006EE089E00AC064E18FE007C067E185E128
:101E100004C088E106C062E289E10E94940EB9CF55
:101E200083E20E94A40DB5CFC1E08C2FCF911F910A
:101E30000F9108959C01FB018281882349F12D3B7C
:101E4000FCE53F07C9F040F42B3BECE53E0769F0A9
:101E50002C3B3C4561F008952F3B9CE5390791F000
:101E600070F0203C3C4589F0089583E001C080E09B
:101E70000E94281080E008950E94980FFBCF0E94D6
:101E8000750FF8CF0E94DF0FF5CF0E94E60FF2CF5B
:101E900081E008958091D0020C940B228091D002B1
:101EA00086958695869508950E94D621811102C057
:101EB0000E947F220E9407228093D002282F26951D
:101EC0002695269530E02430310524F0877088610E
:101ED0008093D0028091D00280FF04C086958695C1
:101EE000869501C080E00C94A0102091D002822F32
:101EF000869586958695482F50E04330510554F4D9
:101F00008F5F982F990F990F990F822F8770892BC8
:101F10008093D0028091D00281608093D0020E9491
:101F20000B228091D0028695869586950C94A01000
:101F30008091D002982F969596959695A1F0915EF6
:101F4000990F990F990F8770892B8093D002887F02
:101F500091E009F490E08091D00290FB80F98093A9
:101F6000D0020E940B228091D0028695869586959C
:101F70000C94A0108091D00280FD13C081608093EA
:101F8000D002813019F489E08093D0028091D00290
:101F90000E940B228091D0028695869586950C949E
:101FA000A01008958091D00280FF08C08E7F80939A
:101FB000D0020E940B2280E00C94A0100895809122
:101FC000D00280FD0C94D20F0C94BA0F9091D002E5
:101FD000892F8695869586958F5F8F71977084304F
:101FE00038F4880F880F880F892B8093D00202C0A5
:101FF0009093D0028091D002887F91E009F490E024
:102000008091D00290FB80F98093D0020E940B2235
:102010008091D0028695869586950C94A010843088
:1020200008F083E09091D0029770282F220F220FA2
:10203000220F922B9093D002987F21E009F420E0A8
:102040009091D00220FB90F99093D0020C94A010B4
:102050000E940F108091D0020C940B22E82FE29581
:10206000EF70F0E032A1282F2F7081E090E001C0E6
:10207000880F2A95EAF7832B82A30895E82FE2952B
:10208000EF70F0E032A1282F2F7081E090E001C0C6
:10209000880F2A95EAF78095832382A308951F92DB
:1020A0000F920FB60F9211242F933F934F935F938C
:1020B0006F937F938F939F93AF93BF93EF93FF9310
:1020C00085E90E943E10FF91EF91BF91AF919F91E2
:1020D0008F917F916F915F914F913F912F910F90D1
:1020E0000FBE0F901F9018951F920F920FB60F9270
:1020F00011242F933F934F935F936F937F938F930D
:102100009F93AF93BF93EF93FF938091880090913B
:1021100089008130914018F085E90E942E10FF91CE
:10212000EF91BF91AF919F918F917F916F915F914F
:102130004F913F912F910F900FBE0F901F901895C8
:10214000CF92DF92EF92FF92CF93C82F8430B0F4FA
:10215000811115C08091880090918900892B51F0E0
:1021600080916F008D7F80936F0080916F008E7FD4
:1021700080936F0085E90E943E1011C0C3E08091FA
:10218000880090918900892B51F480916F008260C2
:1021900080936F0080916F00816080936F002C2F7F
:1021A00030E0AFEFBFEF0E94CC2B23E030E040E007
:1021B00050E00E94A42B2C3784E1380741055105DB
:1021C00030F4C90169E070E00E947C2B29C0DA017B
:1021D000C9018A50974DAF4FBF4F6627782F892F7F
:1021E0009A2F25EF38E241E050E00E94A42B6901CC
:1021F0007A01CA01B9010E945E2B9B01AC01C701A3
:10220000B6010E945E2BBB27A92F982F872F00971E
:1022100021E0A207B10511F0BC0102C06FEF7FEF12
:102220007093890060938800CF91FF90EF90DF90CA
:10223000CF9008950895559A85E90E942E1082E066
:102240008093800089E1809381008FEF9FEF9093CE
:102250008700809386000C94540F2BB1342F309557
:1022600023233BB1432B3FB7F894FC01680F791F40
:10227000E617F70789F0819198E04BB9000000C09C
:1022800087FF2BB9880F000000C000C000C02BB929
:1022900000C09A9591F7ECCF3FBF08952AB1242B47
:1022A0002AB99B01220F331F620F731F0E942D1149
:1022B00087EC90E00197F1F700C00000089540E13D
:1022C0000C944E1182E290E00E94FF2B803281F448
:1022D00083E290E00E94FF2B853051F484E290E08D
:1022E0000E94FF2B91E0873009F090E0892F01C018
:1022F00080E081700895CF93C82F811102C06FEFE5
:1023000001C060E282E290E00E94132CC11102C081
:102310006FEF01C065E083E290E00E94132CC111D1
:1023200002C06FEF01C067E084E290E0CF910C94AF
:10233000132C80E00E947B110C94D0210E94C107D5
:102340008FE39CE90197F1F700C000000E94C107EC
:1023500080E00E94680780FF04C00E9499110C94DD
:10236000B7230895089585E290E00E94FF2B682F1F
:1023700070E080E090E0089585E290E00C94132CEA
:102380000E94B2110E94621181110CC060E070E0E5
:10239000CB010E94BC110E94E3130E94D21481E081
:1023A0000C947B110895CF93FB01C281CC23E9F0FB
:1023B0009C0122513F452031310520F482510E9479
:1023C000E2140CC08031FFE59F0751F481E00E94C8
:1023D000A71F43E062E081E00E94E504C0E018C06E
:1023E00081319F45A9F482E0F2CF8031EFE59E076D
:1023F00011F481E004C081319F4549F482E00E94DC
:10240000C81F43E062E081E00E94E50401C0C1E032
:102410008C2FCF9108952FEFFC0120830895CF9347
:10242000DF93FC012081293029F02A3079F4FC0166
:1024300011820CC0EC010E944E0FFFEF8F9FC00174
:10244000112463E070E00E947C2B6983DF91CF91BF
:102450000895FC012081293061F48181F3E08F9F90
:10246000C00111246FEF70E00E947C2B862F0C942A
:102470000F100895CF93DF93EC018881813889F0A4
:1024800028F48038A1F40E94C30910C0823861F09A
:10249000833869F40E94BD0989830E94C0098A8338
:1024A00006C00E948D0902C00E94B7098983DF918E
:1024B000CF9108950F931F93CF93DF9300D0CDB7A3
:1024C000DEB78C01FC0180818138D1F070F4803856
:1024D00009F040C0F80141814A830E94C009898304
:1024E0000E94BD094A8169812DC0823809F1833873
:1024F00089F50E94C309482FF8016281818122C0B9
:10250000F80181810E94B60DF8018181811108C016
:102510000F900F90DF91CF911F910F910C94270D89
:102520000F900F90DF91CF911F910F910C94EC0DB4
:10253000F80181810F900F90DF91CF911F910F9142
:102540000C94BA090F900F90DF91CF911F910F91CA
:102550000C946D0B0F900F90DF91CF911F910F9105
:102560000895EF92FF920F931F93CF93DF93EC01A7
:10257000162F7C012FEFE21AF20AE8814E2F50E06D
:10258000FA013197E331F10508F0C9C0E659FF4F70
:102590000C94C62B198289E070C08981823039F091
:1025A000833061F08130A1F50E945B2302C00E945C
:1025B000B3119A838B837C836D83B3C07E0183E0E8
:1025C000E80EF11C00E0802F0E946807F7013197A8
:1025D0009083F70180830F5FF2E0EF0EF11C05306E
:1025E00091F79FC08981823099F42A816B81862F6F
:1025F00090E0A0E0B0E0DC0199278827B22B2D8184
:10260000822B2C81BC01CD01722B0E94BC1189C090
:10261000612FCE010E940B1284C04B816A81898197
:102620000E94AE139C838D837CC02C8130E0322FBE
:1026300022278D81282B4B816A8189810E94C713B3
:1026400070C00E94E3136DC0C7010E942912C70128
:102650000E945A1266C0C7010E940F12C7010E9451
:102660003A125FC00E944A0F0E9473095AC00E942A
:102670007D1426C00E947F1499838A8352C06B8187
:1026800070E0898190E0982F88272A81AE014C5F05
:102690005F4F822B0E94821444C06B8170E089815D
:1026A00090E0982F88272A81AE014C5F5F4F822BE4
:1026B0000E94A71436C00E94D21433C00E949B13FC
:1026C00089832FC06B8170E0898190E0982F8827E3
:1026D0002A81AE014C5F5F4F822B0E94221421C0E1
:1026E0006B8170E0898190E0982F88272A81AE0164
:1026F0004C5F5F4F822B0E94461413C00E949911B9
:1027000010C00E9472242FEF81EE94E0215080408F
:102710009040E1F700C000000E94B72302C08FEF95
:102720008883612FCE01DF91CF911F910F91FF9090
:10273000EF900C94722484E0089550E0440F551FEC
:102740002EE1629F400D511D11249A0166E9869F7A
:10275000200D311D1124C901869608950F931F93F2
:10276000CF93DF930E949D138C010E94FF2BC82FF3
:10277000D0E0DC2FCC27C80101960E94FF2B9E01E0
:10278000282BC901DF91CF911F910F9108950F93CD
:102790001F93CF93DF9300D0CDB7DEB72A83398361
:1027A0000E949D138C013981632F0E94132C2A8172
:1027B000622FC80101960F900F90DF91CF911F916A
:1027C0000F910C94132CAF92BF92CF92DF92EF92A5
:1027D000FF920F931F93CF93DF93A12CE12CF12C49
:1027E000B12C00E010E0C0E0D0E06801CE0CDF1CAE
:1027F000FE01EE0FFF1FEC0DFD1DE65BFE4F259168
:1028000034914C2F6B2D8A2D0E94C7132196CF3007
:10281000D10571F7025E1F4FB39485E0B812E3CF84
:1028200086E9E80EF11CA39484E0A812D9CFDF91C9
:10283000CF911F910F91FF90EF90DF90CF90BF90BD
:10284000AF900895EF92FF920F931F93CF93DF9372
:10285000EA017A01E60EF71E8C01C8018696CE15B4
:10286000DF0569F0083522E0120720F40E94FF2BF3
:10287000888301C0188221960F5F1F4FEECFDF9132
:10288000CF911F910F91FF90EF900895CF92DF921B
:10289000EF92FF920F931F93CF93DF937C016A0116
:1028A0008C01060F171FEC01CE018696C017D107C9
:1028B00071F0C83522E0D20740F4FE01EE19FF099D
:1028C000EC0DFD1D60810E94132C2196EDCFDF9150
:1028D000CF911F910F91FF90EF90DF90CF900895CF
:1028E000462F843038F4753028F46F3018F4672F91
:1028F0000C94AE1380E090E0089580E1089582E8A2
:1029000091E00895EF92FF920F931F93CF93DF937F
:10291000EA017A01E60EF71E8C01C80182589D4F2C
:10292000CE15DF0569F0023821E0120720F40E947D
:10293000FF2B888301C0188221960F5F1F4FEDCFB8
:10294000DF91CF911F910F91FF90EF900895CF925B
:10295000DF92EF92FF920F931F93CF93DF937C014F
:102960006A018C01060F171FEC01CE0182589D4FA2
:10297000C017D10771F0C23821E0D20740F4FE0140
:10298000EE19FF09EC0DFD1D60810E94132C2196AC
:10299000ECCFDF91CF911F910F91FF90EF90DF90DF
:1029A000CF900895CF93DF93CEE7D2E060E0CE01E1
:1029B0000E94132C2196C11584E0D807B9F7DF9146
:1029C000CF910895EF92FF920F931F93CF93DF93D0
:1029D00000D01F92CDB7DEB7F82E8FE08F15C0F173
:1029E0008FEF93E00E94FF2B811132C00EE712E0BF
:1029F000FF2069F0011584E0180751F1C8010E9419
:102A0000FF2B811101C0FA940F5F1F4FF1CF198284
:102A10001A821B8278018FEFE81AF80AC8010E9417
:102A2000FF2B89831A82882399F09FEF980F9330A8
:102A300048F40E5F1F4FC7010E94FF2B8A83882333
:102A400039F07801CE0101960E948E048701E2CF11
:102A50000F900F900F90DF91CF911F910F91FF90EA
:102A6000EF9008950F931F93CF93DF93C62FD42F2A
:102A7000022FFC0182818823C9F06093DB010E9450
:102A80004F239093DA018093D90180E28C0F883034
:102A900008F050C0C77081E001C0880FCA95EAF7FE
:102AA000DF91CF911F910F910C9400191091DB01D0
:102AB000161330C08091D9019091DA010E946723EA
:102AC000883C910538F5C0E2CD0F1D17B9F080E2C2
:102AD000810F883040F4177081E001C0880F1A958B
:102AE000EAF70E940719C83048F481E09D2F9770DB
:102AF00001C0880F9A95EAF70E940019802F0E9462
:102B0000ED18C830B8F4D77081E001C0880FDA95AD
:102B1000EAF70AC080E28C0F883060F4C77081E069
:102B200001C0880FCA95EAF7DF91CF911F910F91ED
:102B30000C940719DF91CF911F910F9108959C017B
:102B4000CB01233F4CE53407F9F078F4283DFCE550
:102B50003F07B9F0293D4CE5340711F1273D3C45CD
:102B600031F526E241EE61EE1EC0253FFCE53F0750
:102B700099F070F0263F3C45D1F427E245EE66EE31
:102B800012C027E245EE0EC026E241EE60EE0BC019
:102B900027E245EE64EE07C026E241EE62EE03C096
:102BA00028E241E065EE0E94321580E00895FC01C4
:102BB0008281882319F01092DB01089581E0089545
:102BC000CF93DF93EC01FB018281882309F41FC1BD
:102BD000C230FCE5DF0708F41BC1C6319CE5D9070C
:102BE00038F09E012A5F3C452930310508F010C1BC
:102BF0000E94E9219093D6028093D502C031ECE582
:102C0000DE0709F4C3C008F041C0C8308CE5D8071E
:102C100009F49AC0F0F4C430ECE5DE0709F487C08B
:102C200068F4C2308CE5D80709F477C0C330DC45BE
:102C300009F0E3C08091D502826076C0C630ECE531
:102C4000DE0709F46EC008F07BC08091D502886071
:102C50006BC0CC308CE5D80709F485C068F4CA3065
:102C6000ECE5DE0709F474C008F079C00E946B1B24
:102C70008091D502806858C0CE308CE5D80709F421
:102C800076C008F07FC08091D5028BC0CB3FECE5C9
:102C9000DE0709F44FC018F5C3318CE5D80709F4F5
:102CA0007DC078F4C131ECE5DE0709F473C0C231B0
:102CB000DC4509F0A2C00E946B1B8091D5028F7782
:102CC00033C0C5318CE5D80709F472C008F486C05A
:102CD000CA3FDC4509F091C08091D6023EC0CF3F8B
:102CE000FCE5DF0709F45FC058F4CD3F9CE5D90748
:102CF00009F444C008F43FC08091D60282602DC020
:102D0000C130FDE5DF0709F475C008F45DC0C230CD
:102D1000DD4509F072C080E06EC08091D50281600F
:102D200003C08091D50280618093D50266C08091F6
:102D3000D50211C08091D60282608093D6025DC018
:102D40008091D5028062F0CF8091D5028064ECCF73
:102D50008091D50288608460E7CF8160EECF80915A
:102D6000D5028E7FE1CF8091D5028D7FDDCF80911E
:102D7000D502877FD9CF8091D60218C08091D60224
:102D80008D7FDBCF8091D5028F7ECECF8091D50213
:102D90008F7DCACF8091D5028F7BC6CF8091D5021F
:102DA000877F8B7FC1CF8091D6028D7F8E7FC5CFED
:102DB0008091D50282FB222720F991E0922790FB97
:102DC00082F990FB83F9B0CF8091D602982F90952D
:102DD00091708E7F892B90FB81F9AFCF0E946B1B86
:102DE0008091D50287FB222720F991E0922790FB62
:102DF00087F99ACF81E00E9481228091D50290913B
:102E0000D6020E94FA210E946B1B80E001C081E083
:102E1000DF91CF910895CF93DF9386319C4541F5A3
:102E2000EB010E942021282F8A81409110015091AE
:102E30001101882379F02A7A91E009F490E09093C7
:102E4000DC01911102C069E201C065E3CA010E9480
:102E5000B8220AC08091DC01811102C069E201C080
:102E600065E3CA010E94BA220E946C2180E001C081
:102E700081E0DF91CF9108959093E2018093E10189
:102E80000895E091E101F091E201309721F0019085
:102E9000F081E02D099480E00895E091E101F09146
:102EA000E201309721F00280F381E02D099408952A
:102EB0002091DF013091E0018217930771F0909328
:102EC000E0018093DF01E091E101F091E2013097B0
:102ED00021F00680F781E02D099408952091DD010D
:102EE0003091DE018217930771F09093DE01809399
:102EF000DD01E091E101F091E201309721F00084E1
:102F0000F185E02D0994089585B7806885BF85B760
:102F1000806885BF08950895089508950C948D17CD
:102F20000E9484170E948B170C947D0381E0089502
:102F30000E9446230E9476070E94C0110E94DB2354
:102F40000E94540F0E94B90D0C948E177F928F929D
:102F50009F92AF92BF92CF92DF92EF92FF920F9328
:102F60001F93CF93DF93CDB7DEB72A970FB6F894B0
:102F7000DEBF0FBECDBF0E94C1070E949617811110
:102F800011C08FEF89838A831B820E944F23816047
:102F9000782F9D838C8349815A816B818D810E941A
:102FA00058184FC034EE832E31E0932E00E010E02D
:102FB000702E802F0E9468076C01F401A190B190DF
:102FC0004F01A826B926A114B10431F40F5F1F4F99
:102FD0000530110569F7D5CF80916E0281FD0E9401
:102FE000710790E0EE24E394F12C97012A213B2114
:102FF000232B09F19E837F82CE20DF2091E0CD2814
:1030000009F490E098870E944F238160782F9A8777
:1030100089874E815F8168858A850E945818000FD4
:10302000111FF801EC51FE4F80819181E826F926AD
:10303000F182E08206C09F5FEE0CFF1C9F30A9F674
:10304000C5CF0E94F40D0E941A111091E3010E9455
:1030500041171817C9F00E9441178093E3012A967F
:103060000FB6F894DEBF0FBECDBFDF91CF911F9199
:103070000F91FF90EF90DF90CF90BF90AF909F9017
:103080008F907F900C940A052A960FB6F894DEBFB5
:103090000FBECDBFDF91CF911F910F91FF90EF90A9
:1030A000DF90CF90BF90AF909F908F907F900895CA
:1030B000CF93DF93CDB7DEB72B970FB6F894DEBF73
:1030C0000FBECDBF4F83588769877A878B87DE0114
:1030D000119686E0FD0111928A95E9F785E0FE01DF
:1030E000379601900D928A95E1F749815A816B815B
:1030F0007C818D819E810E94151E2B960FB6F894BF
:10310000DEBF0FBECDBFDF91CF910895FC0180815E
:1031100091810E94E1200895882391F1682F8CEF1E
:10312000860F813A38F480911001909111010E942C
:10313000B8220CC080E2860F883050F4677081E0BE
:1031400001C0880F6A95EAF70E9423210C946C2134
:10315000EBE5E60FE33038F4F0E0EB54FE4F80810E
:1031600090E00C945817685A673150F4E62FF0E05D
:10317000EE0FFF1FE957FE4F808191810C946E176F
:103180000895882349F1682F8CEF860F813A38F42F
:1031900080911001909111010E94BA220CC080E22E
:1031A000860F883050F4677081E001C0880F6A95FF
:1031B000EAF70E9429210C946C218BE5860F83305D
:1031C00020F480E090E00C945817685A673120F49E
:1031D00080E090E00C946E170895CF93C82F0E9462
:1031E0008C18C93349F42FEF87EE93E021508040CB
:1031F0009040E1F700C000008C2FCF910C94C118D3
:10320000882321F00E9423210C946C2108958823A7
:1032100021F00E9429210C946C210895BF92CF9235
:10322000DF92EF92FF920F931F93CF93DF937C0176
:10323000062FC72FFC01158112951F70D281D11165
:103240000E9440210E941921882379F0DD2369F032
:1032500080E2800F883048F082E00E94B7210E940F
:10326000192191E0B82EB92601C0B12CCC2EC29400
:103270008FE0C822D12CF601E358FF4F0C94C62BE7
:103280008C2F807FCF70882311F0C295C07FDD2303
:1032900099F0CC2309F48CC180E2800F883010F0C3
:1032A000011104C08C2F0E94232103C08C2F0E9487
:1032B00033210E946C217CC1802F0E94C118CC2335
:1032C00009F49BC180E2800F883010F0011104C026
:1032D0008C2F0E94292103C08C2F0E9439210E942B
:1032E0006C218BC18C2F807FCF70803211F0C29502
:1032F000C07F002319F00130C9F022C0DD2371F036
:10330000112341F0113031F40E9453218C2B0E9483
:10331000592173C10E9453218C2B1DC0112319F018
:10332000113009F46AC10E94622125C0DD2321F019
:10333000163008F062C10EC0153008F05EC11BC027
:10334000DD2361F0112331F0F701858180FF30C169
:103350008F7085838C2F0E9400194FC1112359F063
:10336000093309F036C1FFEF27EE83E0F15020402A
:103370008040E1F72CC18C2F0E9407193EC18C2F91
:1033800086958695837090E0009719F0019761F01B
:1033900034C1DD2321F0802F9C2F937002C080E088
:1033A00090E00E94581734C1DD2321F0802F9C2F1C
:1033B000937002C080E090E00E946E1729C18C2FAC
:1033C000837009F049C0D1111FC1402F4295469525
:1033D0004770440F440F602F6F70862F90E0A0E07D
:1033E000B0E0042E04C0880F991FAA1FBB1F0A94C7
:1033F000D2F704FF10C00FE010E020E030E004C07E
:10340000000F111F221F331F4A95D2F70095109508
:103410002095309503C000E010E09801C695C69550
:10342000C370D0E0BC01CD01602B712B822B932B9C
:10343000C230D10559F0C330D10559F0219719F0A8
:103440000E945A1FE1C00E94481FDEC00E946C1FEC
:10345000DBC00E94461FD8C0DD2319F08C2F81707D
:1034600001C08695882309F4CFC0402F4295469528
:103470004770440F440F602F6F70862F90E0A0E0DC
:10348000B0E0042E04C0880F991FAA1FBB1F0A9426
:10349000D2F704FF10C00FE010E020E030E004C0DD
:1034A000000F111F221F331F4A95D2F70095109568
:1034B0002095309503C000E010E09801C695C695B0
:1034C000C370D0E0BC01CD01602B712B822B932BFC
:1034D000C230D10559F0C330D10559F0219719F008
:1034E0000E94202091C00E940E208EC00E94322097
:1034F0008BC00E94811F88C0CF70DD2339F08C2FD4
:103500000E94A71F802F0E9400197EC0802F0E945A
:1035100007198C2F0E94C81F77C0023F01F128F4C1
:10352000003F41F0013FA1F03FC0033FF9F0043FED
:1035300039F13AC0DD2341F0153008F05EC08C2F20
:103540008F710E94ED1F59C0163008F056C0F7CF9A
:10355000DD2339F08C2F8F710E94A71F4EC0DD2311
:10356000C9F38C2F8F710E94C81F47C0DD2329F03B
:103570008C2F8F710E94921F40C00E948D1F3DC0F2
:10358000DD2349F0CF718C2F0E94A71F63E08C2FA1
:103590000E94A22132C081E00E94B721123068F15E
:1035A00082E00E94B72129C0DD2331F0112391F27E
:1035B000802F0E948C1821C0112399F2093349F4FD
:1035C0009FEFE7EEF3E09150E040F040E1F700C0FC
:1035D0000000802F0E94C11810C04C2F4F70602F28
:1035E000C7010E9471050E94B91E12C04C2F4F7076
:1035F000602FC7010E9474050BC028E0C21AD108D1
:1036000084E0C816D10420F40E9441170E940A05E4
:10361000BB20D1F00E94152180FD16C0F701128257
:103620000E940F210E94A71FC7010E942E1B0E940B
:103630000F21DF91CF911F910F91FF90EF90DF90BD
:10364000CF90BF900C94C81FDF91CF911F910F9125
:10365000FF90EF90DF90CF90BF9008950F931F934E
:10366000CF93DF93EC01888199812B813C81232BBF
:10367000B9F09F3F11F48F3F99F0CE010E942305CE
:10368000882371F0688179818A810E94EC208C0105
:103690000E9444200E94451FB801CE010E940E19CD
:1036A000DF91CF911F910F9108950E9440210E94B8
:1036B00050210E946C2180E090E00E94581780E029
:1036C00090E00C946E1780911001909111010E946E
:1036D000BC220C94551B0E9430210C94631BE92FD3
:1036E000E295EF70F0E03297EE30F105B0F4E35779
:1036F000FF4F0C94C62B803F91F018F4883E68F47D
:103700000EC0843F51F40BC0883E48F0813F29F43D
:1037100006C093FB882780F9089580E0089581E032
:1037200008950E94E1200E946F1B0895CF93DF93BC
:1037300000D000D01F92CDB7DEB70F900F900F9042
:103740000F900F90DF91CF910895CF93DF9300D02A
:1037500000D000D0CDB7DEB726960FB6F894DEBF06
:103760000FBECDBFDF91CF9108951F93CF93DF930D
:10377000C091EF0116E08091F001C81799F0D0E0F8
:103780001C9FF0011D9FF00D1124EF50FE4F408152
:10379000518162817381848195810E94A51B21964C
:1037A000C770E9CFDF91CF911F9108954091210219
:1037B000509122026091230270912402809125028F
:1037C000909126020C94A51B8091260282958F7001
:1037D00009F054C080912302882309F44FC08091DE
:1037E000EF01A091F00160912102709122024091BD
:1037F000240250912502B6E08A1709F43FC090E0F8
:1038000041155105C1F17F3F11F46F3FA1F1B89F00
:10381000F001B99FF00D1124EF50FE4F218172137A
:103820002AC02081621327C02281211124C0238154
:1038300034812417350710F421503109241B350B2E
:10384000283C3105C0F4209126022F70206120937E
:10385000260226E0289FF001299FF00D1124EA504E
:10386000FE4F80818F708061808381E292E00E94B0
:103870002E1B0C94B51B01968770BECF0895CF9276
:10388000DF92EF92FF920F931F93CF93DF93CDB709
:10389000DEB762970FB6F894DEBF0FBECDBF8C01C6
:1038A00085E0F801DE011D9601900D928A95E1F701
:1038B000D8014C9111965C91119712966C911297C8
:1038C0001396CD90DC9014973091210270912202D2
:1038D0008091240290912502009709F46BC17F3FEB
:1038E00019F43F3F09F466C1E0902302EE2009F489
:1038F000C0C020912602C816D90628F0F601E81BA0
:10390000F90BCF0104C0809590958C0D9D1DFF246F
:10391000F394883C910578F0F12C207F09F0C6C023
:103920007C2DD98AC88A89890E94961B81E292E0FF
:103930000E942E1BB1C0822F807F09F046C07513F4
:1039400014C0341312C0611110C02F702061209375
:1039500026020E94D61B81E292E00E942E1B8091DB
:103960002602D80115968C932EC0CD2819F15F3F01
:1039700011F44F3FF9F0F62E61111CC08091EF0158
:103980002091F00136E0821709F45AC090E0389F88
:10399000F001399FF00D1124EF50FE4F7181571344
:1039A00006C07081471303C07281711103C0019674
:1039B0008770E9CFF62E662309F427C1809126028D
:1039C000816080932602F12C20C1751308C0341346
:1039D00006C0611104C080912602D801C3C04D8782
:1039E0005E878D859E856A8B0E94911B6A898823DC
:1039F000E1F16623D1F120912602822F82958F700A
:103A000090E0029774F080912102909122029887B1
:103A10008F831986DB86CA862C87CE0107960E9483
:103A20002E1B86E0F801A1E2B2E001900D928A958A
:103A3000E1F70E94E41B0E94D61BFF24F394E5C02B
:103A40004D875E878D859E850E94E120292F2295D6
:103A50002F7030E0223031050CF0CBC09F7009F0A0
:103A6000C5C0805E883008F4D0C0C8010E942E1BFB
:103A7000E4CFC816D90608F453C0F601E81BF90BC9
:103A8000CF01883C910508F450C0F12C7C2DD98AD7
:103A9000C88A89890E94961BE1E2F2E086E0DF0194
:103AA0001D928A95E9F70E94D61BAFC0751314C00A
:103AB000341312C0611110C080912602F801858371
:103AC000C8010E942E1B86E0E1E2F2E0DF011D92B8
:103AD0008A95E9F7FE2C99C04D875E878D859E8576
:103AE0006A8B0E94911B6A89882309F4BECF6623E2
:103AF00009F4BBCF20912602822F82958F7090E02F
:103B000002970CF48ECF80912102909122029A8329
:103B100089831B82DD82CC822E83CE0101967FCFEA
:103B2000809590958C0D9D1DACCFF62E662309F4E3
:103B30009CCF75132EC034132CC02091260220FD7B
:103B40001FC0822F82958F70D9F0D80115962C93C3
:103B500015978F3049F08F5F982F9295907F822F25
:103B60008F70892B15968C93C8010E942E1B86E0BE
:103B7000F801A1E2B2E001900D928A95E1F793CFAE
:103B800086E0F801A1E2B2E001900D928A95E1F79A
:103B90003CC04D875E878D859E850E94911B81115B
:103BA00040CF80912602816080932602C8010E9446
:103BB0002E1B2BC0662309F458CF4D875E878D8559
:103BC0009E850E94911BF82E882309F44ECF86E033
:103BD000F801A1E2B2E001900D928A95E1F781E24D
:103BE00092E00E9486180E94E41B5DCF811139CFBC
:103BF0000CC0243031050CF038CF9F7009F431CF60
:103C0000F8019581907F09F02CCF8F2D62960FB629
:103C1000F894DEBF0FBECDBFDF91CF911F910F9102
:103C2000FF90EF90DF90CF9008951F93CF93DF9395
:103C3000CDB7DEB72C970FB6F894DEBF0FBECDBF61
:103C40004F83588769877A878B879C87CE01079631
:103C50000E943F1C882369F08F8198852A853B85C7
:103C6000232BF1F19F3F09F063C08F3F09F060C043
:103C700037C086E0FE013796DE01119601900D9265
:103C80008A95E1F76F817885EA85FB85309741F168
:103C90007F3F11F46F3F21F12091F00130E0C90125
:103CA0000196877099274091EF0150E0841795079E
:103CB00009F447C069837A83FD83EC8396E0929F81
:103CC000D001939FB00D1124AF50BE4FFE0131962D
:103CD00001900D929A95E1F78093F0010E94B51B37
:103CE00016E08091EF019091F0018917C1F1189FC2
:103CF000C00111248F509E4F0E943F1C882379F1F0
:103D0000E091EF011E9FF0011124EF50FE4F408122
:103D1000518162817381848195810E94A51B80916C
:103D2000EF0190E00196877099278093EF01D9CF3A
:103D30004F81588569857A858B859C850E94A51B56
:103D4000CFCF0E946B1B1092F0011092EF01E1E2C5
:103D5000F2E086E0DF011D928A95E9F7C1CF2C964B
:103D60000FB6F894DEBF0FBECDBFDF91CF911F918C
:103D70000895EF92FF920F931F93CF93DF938C01DF
:103D8000892B09F46CC0F12CEE24E394E801219610
:103D9000F8018491843740F4843008F051C08130B8
:103DA00081F0823019F15BC0853709F444C0A8F175
:103DB0009CE7980F903708F052C08F770E94C11887
:103DC00041C00E5F1F4FFE01C49180E28C0F88300E
:103DD00048F4C7708E2D01C0880FCA95EAF70E947B
:103DE000432114C08C2F0E948C182DC00E5F1F4FD2
:103DF000FE01C49180E28C0F883058F4C7708E2D7C
:103E000001C0880FCA95EAF70E9449210E946C21DF
:103E10001AC08C2F0E94C11816C00E5F1F4FFE01E2
:103E2000C491CC2381F08FE99FE00197F1F700C0A6
:103E30000000C150F6CF0E5F1F4FFE01F49003C08B
:103E40000E948C188E018F2D882309F49FCFEFE9F3
:103E5000FFE03197F1F700C000008150F5CFDF910E
:103E6000CF911F910F91FF90EF90089508950C94BA
:103E7000361F0E94371F60935D0270935E0280932D
:103E80005F02909360020C94551B08950C94391FA7
:103E90000F931F9300915D0210915E0220915F02CB
:103EA00030916002602B712B822B932B1F910F910D
:103EB0000C94391F0F931F9300915D0210915E02C5
:103EC00020915F023091600260237123822393234B
:103ED0001F910F910C94391F0F931F9300915D0256
:103EE00010915E0220915F0230916002602771277D
:103EF000822793271F910F910C94391F08950C94DA
:103F00007E1F0E947F1F6093590270935A02809314
:103F10005B0290935C020C94551B60E070E0CB0157
:103F20000C94811F0F931F9341E050E060E070E01C
:103F30008A019B0104C0000F111F221F331F8A95A5
:103F4000D2F7C901B8011F910F910C94811F0F93F3
:103F50001F9341E050E060E070E004C0440F551F43
:103F6000661F771F8A95D2F78091590290915A0265
:103F7000A0915B02B0915C028A019B01082B192B76
:103F80002A2B3B2BC901B8011F910F910C94811F63
:103F90000F931F9341E050E060E070E004C0440FD5
:103FA000551F661F771F8A95D2F7409550956095EB
:103FB00070958091590290915A02A0915B02B09144
:103FC0005C028A019B01082319232A233B23C90190
:103FD000B8011F910F910C94811F0F931F9341E023
:103FE00050E060E070E004C0440F551F661F771F6B
:103FF0008A95D2F78091590290915A02A0915B0262
:10400000B0915C028A019B01082719272A273B27C8
:10401000C901B8011F910F910C94811F0F931F9339
:104020000091590210915A0220915B0230915C027A
:10403000602B712B822B932B1F910F910C94811F5E
:104040000F931F930091590210915A0220915B0225
:1040500030915C0260237123822393231F910F917F
:104060000C94811F0F931F930091590210915A02D3
:1040700020915B0230915C02602771278227932791
:104080001F910F910C94811F08952FE0929F800D36
:104090001124A82FA695A695A695877051E001C07A
:1040A000550F8A95EAF785E0A89FD001112420E0FA
:1040B00030E070E0F901EA0FFB1FE95DFD4F408140
:1040C000CB01022E02C0969587950A94E2F7817083
:1040D0009927819584278523842780832F5F3F4FED
:1040E0002530310539F708952FE0929F800D112476
:1040F000682F669566956695982F977085E0689FFE
:10410000B001112440E050E080E0FA01E60FF71F13
:10411000E95DFD4F208130E0092E02C036952795DC
:104120000A94E2F721703327042E01C0220F0A946B
:10413000EAF7822B4F5F5F4F4530510531F7089505
:10414000BF92CF92DF92EF92FF920F931F93CF9384
:10415000DF938C01C0905D02D0905E02E0905F0220
:10416000F09060028091590290915A02A0915B02F6
:10417000B0915C02C82AD92AEA2AFB2ACFE1D0E012
:10418000D701C6010C2E04C0B695A79597958795C3
:104190000A94D2F780FF07C0BC2EB8018C2F0E9472
:1041A0007D05019719F4219758F7B12C8B2DDF91DC
:1041B000CF911F910F91FF90EF90DF90CF90BF9024
:1041C0000895CF93DF93EC010E94A020BE010E94CE
:1041D0007D05DF91CF9108951F93CF93DF93EB017E
:1041E0009091EE01992321F0CB010E94E12013C0B0
:1041F000882349F0CB010E94A020182F682FCE0100
:104200000E94452004C0CB010E947420182FBE01DB
:10421000812F0E947D05DF91CF911F91089580919C
:1042200061028595859585950895809161028770D5
:10423000089590916102977081E009F480E00895FB
:1042400080916D02089590916D02892B80936D028B
:104250000895809590916D02892380936D02089551
:1042600010926D02089590916C02892B80936C02DC
:104270000895809590916C02892380936C02089533
:1042800010926C02089590916B02892B80936B02BF
:104290000895809590916B02892380936B02089515
:1042A00010926B02089580916202089508950C9413
:1042B000562190916202981721F0809362020C942B
:1042C0005721089580916202882329F0109262029A
:1042D00080E00C9457210895E0911001F0911101B4
:1042E00080916D028083E0911001F0911101908125
:1042F00080916C02892B8083E0911001F091110173
:10430000908180916B02892B808380916202882347
:1043100081F0E0911001F09111019081892B80834F
:1043200080911001909111010E94862281110E94BA
:10433000622180911001909111010C944D17089504
:104340000C949F2198E0899F90011124262B2093A3
:1043500061020E94A71F80916102859585958595D0
:104360000C94A0211092610280E00C94A021209175
:1043700061028095822380936102982F977079F46F
:1043800030E0482F082E000C550B2417350739F064
:104390008595859585950E94C81F0C94B221089536
:1043A0006FEF7FEF80E090E00C94312C80E090E0A4
:1043B0000E940D2C21E08C3E9E4F09F020E0822FC0
:1043C000089582E090E00C94FF2B83E090E00C9441
:1043D000FF2BCF9384E090E00E94FF2BC82F81E257
:1043E00090E00E94FF2B2C2F30E0A901582BCA012E
:1043F000CF910895CF93C92F682F84E090E00E9459
:10440000132C6C2F81E290E0CF910C94132C86E05A
:1044100090E00C94FF2B682F86E090E00C94132C16
:10442000AB01BC018FE090E00C94252CAB01BC01EA
:1044300083E190E00C94252C60E070E0CB010C94BB
:10444000162260E070E0CB010E9410220C941C2226
:104450006CEE7EEF80E090E00E94312C60E082E024
:1044600090E00E94132C60E083E090E00E94132C07
:1044700010925D0210925E0210925F021092600232
:1044800060E084E090E00E94132C60E081E290E024
:104490000E94132C60E085E090E00E94132C60E005
:1044A00086E090E00E94132C6FEF87E090E00E947E
:1044B000132C40E050E0BA0188E090E00E94252CE7
:1044C00060E08DE090E00E94132C40E050E0BA01E3
:1044D00088E190E00E94252C60E087E190E00E9456
:1044E000132C40E050E0BA018CE190E00E94252CB2
:1044F00060E080E290E00E94132C0C9421220C9446
:104500002822682F8EE090E00C94132CFC01329648
:1045100097E080E0915029F021912223D9F38F5F19
:10452000F9CF08959C01FC0132969FEF80E0419104
:10453000461789F09F3F19F4411101C0982F8F5FF2
:104540008630A9F79F3F39F0F901E90FF11D97FD7A
:10455000FA95628308950895FC01329608962081A9
:10456000261301C010823196E817F907C1F70895A4
:104570000C9492220C94AC22029626E0FC0111923B
:104580002A95E9F7089508950C94C3220E94C42245
:104590008091DB02843061F110926F0220E488E1A7
:1045A00090E00FB6F894A895809360000FBE20931A
:1045B000600080E00E94A01080E00E940A050E9436
:1045C000C42283B7817F846083BF83B7816083BF48
:1045D0007894889583B78E7F83BF0FB6F894A8959B
:1045E00080916000886180936000109260000FBE2F
:1045F000089508950895CF930E94F9220E94C1075B
:104600000E94FA22C0E08C2F0E946807892B29F4AF
:10461000CF5FC530C1F780E001C081E0CF91089540
:1046200008950C9410230E946B1B0E94540F0E944B
:1046300041170E940A050C9411231F920F920FB686
:104640000F9211248F939F93AF93BF9380916F022A
:10465000811113C08091D1029091D202A091D30216
:10466000B091D4024196A11DB11D8093D1029093C7
:10467000D202A093D302B093D402BF91AF919F9185
:104680008F910F900FBE0F901F90189582E084BD00
:1046900093E095BD9AEF97BD80936E0008952FB774
:1046A000F8948091D1029091D202A091D302B0915E
:1046B000D4022FBF08952FB7F8946091D102709162
:1046C000D2028091D3029091D4022FBF0895CF924D
:1046D000DF92EF92FF920F931F932FB7F8944091C0
:1046E000D1025091D2026091D3027091D4022FBFB7
:1046F0006A017B01EE24FF248C0120E030E0C0162B
:10470000D106E206F30610F4415051099A01281B24
:10471000390BC9011F910F91FF90EF90DF90CF905F
:10472000089578941F920F920FB60F9211248F93D1
:104730009F93AF93BF938091D1029091D202A091A9
:10474000D302B091D4020196A11DB11D8093D10274
:104750009093D202A093D302B093D402BF91AF91B1
:104760009F918F910F900FBE0F901F90189581E031
:104770008093E00080E28093D8001092C9008FE11E
:104780009EE40197F1F700C0000087E090EBDC01A8
:104790008093E4029093E502A093E602B093E702CF
:1047A0009CE088E10FB6F894A895809360000FBE56
:1047B00090936000FFCF0E94D621811102C00E9419
:1047C0007F220E94E12180936E020E94E921909352
:1047D000D6028093D5020E94E521682F70E080E028
:1047E00090E00C94461F8091780208950895CF932D
:1047F000DF9300D01F92CDB7DEB79091DB029430EB
:1048000011F589837B836A839093E9008FEF909100
:10481000E800815095FD06C095ED9A95F1F70000EE
:104820008111F5CF8091E80085FF0DC040E050E098
:1048300063E070E0CE0101960E9477268091E80047
:104840008E778093E8000F900F900F90DF91CF91BB
:104850000895CF93DF93EC010E945A26823011F025
:10486000843031F4BE0184E0DF91CF910C94F723C2
:10487000DF91CF910895BC0183E00C94F723CF938F
:10488000DF93EC010E945A26823011F0843039F512
:1048900081E08093E9008FEF9091E800815095FDD1
:1048A00006C095ED9A95F1F700008111F5CF809142
:1048B000E80085FF14C040E050E068E070E0CE0101
:1048C0000E9477268091E8008E778093E80088E048
:1048D000FE01A0E7B2E001900D928A95E1F7DF9129
:1048E000CF910895CF93603219F52091DB022430E7
:1048F000F9F4C091E900CF703091EC00232F2170C2
:1049000030FD20E8C22B22E02093E9002091E8004E
:1049100020FF0BC040E050E060E270E00E9477268C
:104920008091E8008E778093E800CF70C093E90013
:10493000CF9108958091DA02811109C00E94572811
:104940000E94B4288091E20084608093E200089580
:104950001092DA020895089508950C94132342E00A
:1049600061EC81E00E94D12742E261EC84E00E9488
:10497000D12742E261EC82E00E94D12742E260EC62
:1049800083E00C94D1278091DD02833009F462C06A
:1049900030F4813071F0823009F49BC008958A3080
:1049A00009F487C08B3009F46DC0893009F0A9C0C3
:1049B00020C08091DC02813A09F0A3C08091E80018
:1049C000877F8093E8008091E0029091E102892B3B
:1049D00021F468E080E792E003C060E080E090E0CE
:1049E00070E00E940D278091E8008B778093E800AB
:1049F00008958091DC02813209F083C08091E00249
:104A00009091E102009719F0029709F07AC0809125
:104A1000E800877F8093E8008091E80082FD05C070
:104A20008091DB028111F8CF6CC02091F30080915E
:104A3000F20090E0922B029729F48091F1008B7F95
:104A4000813021F48091F100809378028091E80018
:104A50008B7753C08091DC02813A09F052C080917B
:104A6000E0029091E102892B09F04BC08091E800AF
:104A7000877F8093E8008091E80080FFFCCF8091E1
:104A80001C0136C08091DC028132D9F58091E002B0
:104A90009091E102892BA9F58091E800877F8093AE
:104AA000E8000E9406288091DE0280931C010C948D
:104AB0006B1B8091DC02813221F58091E800877FB9
:104AC0008093E8000E9406288091DF02809379029B
:104AD00008958091DC02813AA1F48091E800877FFB
:104AE0008093E8008091E80080FFFCCF80917902FC
:104AF0008093F1008091E8008E778093E8000C9419
:104B0000062808951F93CF93DF93CDB7DEB7A09704
:104B10000FB6F894DEBF0FBECDBF84B7877F84BFCA
:104B20000FB6F894A895809160008861809360002A
:104B3000109260000FBE90E080E80FB6F89480936A
:104B40006100909361000FBE0E9490170E94572849
:104B50000E94B4288091E20084608093E2007894FF
:104B60000E94432B0E94981782E191E00E943C171B
:104B700013E08091DB02853069F40E94C6228091A7
:104B8000D9028823B1F30E94FB22882391F30E946B
:104B90006126EFCF0E94A6178091DB02843049F78F
:104BA0001093E9008091E80082FFE3CF8091E80054
:104BB00085FF0AC040E050E060E270E0CE0101965F
:104BC0000E94C22691E001C090E08091E8008B77BE
:104BD0008093E800992369F260E2CE0101960E9479
:104BE000B112C7CF0C94F425292F33272330310578
:104BF000C9F064F42130310581F02230310509F02B
:104C000049C08BE590E02FE535E048C02132310501
:104C100021F12232310571F13DC082E190E02AEBB1
:104C200035E03CC099278130910571F02CF4892B37
:104C300089F5EBE5F5E00DC08230910541F0039771
:104C400049F5EDE2F5E005C0EDE4F5E002C0E3E38F
:104C5000F5E0849190E09F0121C063307105D0F4AC
:104C6000660F771FFB01EF53FE4F2081318189E0F2
:104C700090E014C06330710568F4FB01EE0FFF1F74
:104C8000E554FE4F20813181FB01E854FE4F8081C5
:104C900090E004C080E090E020E030E0FA01318351
:104CA000208308958091DB02843011F081E0089523
:104CB00082E0089580917A02811102C00C945226FC
:104CC000089580E189BD82E189BD09B400FEFDCF70
:104CD0008091D8008F7D8093D8008091E000826021
:104CE0008093E0008091E00081FDFCCF0895CF9299
:104CF000DF92EF92FF920F931F93CF93DF93EC011C
:104D00008B016A010E942528811133C0C114D1048E
:104D100039F0F60180819181081B190BC80FD91F4A
:104D2000E12CF12C0115110519F18091E80085FDA8
:104D300016C08091E8008E778093E800C114D104FA
:104D400049F0F60180819181E80EF91EF182E0823E
:104D500085E00FC00E942528882321F30AC089918D
:104D60008093F10001501109FFEFEF1AFF0ADACF2B
:104D700080E0DF91CF911F910F91FF90EF90DF9036
:104D8000CF900895CF92DF92EF92FF920F931F93EF
:104D9000CF93DF93EC018B016A010E9425288111DA
:104DA00033C0C114D10439F0F60180819181081B10
:104DB000190BC80FD91FE12CF12C0115110519F1A0
:104DC0008091E80085FD16C08091E8008B77809384
:104DD000E800C114D10449F0F60180819181E80E08
:104DE000F91EF182E08285E00FC00E942528882309
:104DF00021F30AC08091F100899301501109FFEF5E
:104E0000EF1AFF0ADACF80E0DF91CF911F910F9167
:104E1000FF90EF90DF90CF9008952091E2023091C3
:104E2000E3022617370748F06115710539F4209120
:104E3000E8002E772093E80001C0B90140E0611539
:104E40007105A9F12091DB02222309F443C025302A
:104E500009F442C02091E80023FD40C02091E80001
:104E600022FD32C02091E80020FFE9CF4091F300FD
:104E70002091F20030E0342BFC01CF016115710567
:104E800059F02830310540F481918093F100615050
:104E900071092F5F3F4FF1CF41E02830310509F014
:104EA00040E02091E8002E772093E800C8CF411120
:104EB000C9CF0AC08091DB02882361F0853061F0A0
:104EC0008091E80083FD0AC08091E80082FFF2CF64
:104ED00080E0089582E0089583E0089581E00895D8
:104EE0002091E2023091E3022617370748F061155E
:104EF000710539F42091E8002E772093E80001C075
:104F0000B901FC0120E06115710591F18091DB028E
:104F1000882309F440C0853009F43FC08091E8003F
:104F200083FD3DC08091E80082FD2FC08091E800A4
:104F300080FFE9CF2091F3008091F20090E0922B66
:104F40006115710559F08830910540F42491209342
:104F5000F1003196615071090196F2CF21E0089776
:104F600009F020E08091E8008E778093E800CBCFB5
:104F70002111CCCF0AC08091DB02882361F08530FB
:104F800061F08091E80083FD0AC08091E80082FF13
:104F9000F2CF80E0089582E0089583E0089581E0F3
:104FA0000895982F973058F59093E900981739F0A5
:104FB0007091EC002091ED005091F00003C0242F7F
:104FC000762F50E021FF19C03091EB003E7F3093E7
:104FD000EB003091ED003D7F3093ED003091EB0020
:104FE00031603093EB007093EC002093ED00509310
:104FF000F0002091EE0027FF07C09F5FD3CF8F7096
:105000008093E90081E0089580E008958091DC02BA
:1050100087FF11C08091E80082FD05C08091DB020E
:105020008111F8CF11C08091E8008B770BC080917F
:10503000DB02882349F08091E80080FFF8CF80915F
:10504000E8008E778093E80008952091E400309185
:10505000E50095E64091EC00842F817040FF22C06E
:105060008091E80080FD1CC08091DB02882391F0D4
:10507000853091F08091EB0085FD10C04091E400F7
:105080005091E5004217530729F39A01915011F707
:1050900084E0089582E0089583E0089581E0089512
:1050A00080E008954091E80042FFDECF08950E941D
:1050B000C5280E94CD28E0EEF0E0808181608083E9
:1050C000E8EDF0E080818F77808319BCA7EDB0E038
:1050D0008C918E7F8C9380818F7E80831092DA02F8
:1050E00008950F931F93CF93DF930E94C5280E94CA
:1050F000CD28C8EDD0E088818F778883888180684B
:10510000888388818F7D888319BC1092DB0210927E
:10511000D7021092D9021092D80200EE10E0F801E6
:1051200080818B7F808388818160888342E060E01A
:1051300080E00E94D127E1EEF0E080818E7F8083C5
:10514000E2EEF0E0808181608083808188608083EE
:10515000F80180818E7F8083888180618883DF91E0
:10516000CF911F910F910895E8EDF0E080818F7E3F
:105170008083E7EDF0E080818160808384E082BFFE
:1051800081E08093DA020C947128E8EDF0E08081F0
:105190008E7F80831092E20008951092DA001092C0
:1051A000E10008951F920F920FB60F9211242F93D2
:1051B0003F934F935F936F937F938F939F93AF939F
:1051C000BF93EF93FF938091E10082FF0BC080912A
:1051D000E20082FF07C08091E1008B7F8093E100B5
:1051E0000E94422B8091DA0080FF1FC08091D8007E
:1051F00080FF1BC08091DA008E7F8093DA0080915F
:10520000D90080FF0DC080E189BD82E189BD09B46C
:1052100000FEFDCF81E08093DB020E949A2405C04E
:1052200019BC1092DB020E94A8248091E10080FF4B
:1052300019C08091E20080FF15C08091E2008E7F4E
:105240008093E2008091E20080618093E20080918F
:10525000D80080628093D80019BC85E08093DB027F
:105260000E94AC248091E10084FF30C08091E20074
:1052700084FF2CC080E189BD82E189BD09B400FEB4
:10528000FDCF8091D8008F7D8093D8008091E10080
:105290008F7E8093E1008091E2008F7E8093E20018
:1052A0008091E20081608093E2008091D7028823A0
:1052B00011F084E007C08091E30087FD02C081E027
:1052C00001C083E08093DB020E94AD248091E10065
:1052D00083FF29C08091E20083FF25C08091E10017
:1052E000877F8093E10082E08093DB021092D702F7
:1052F0008091E1008E7F8093E1008091E2008E7FBB
:105300008093E2008091E20080618093E20042E0BD
:1053100060E080E00E94D1278091F0008860809357
:10532000F0000E94AB24FF91EF91BF91AF919F914C
:105330008F917F916F915F914F913F912F910F903E
:105340000FBE0F901F9018951F920F920FB60F92DD
:1053500011242F933F934F935F936F937F938F937A
:105360009F93AF93BF93CF93DF93EF93FF93C0913E
:10537000E900CF708091EC00D82FD17080FDD0E88B
:105380001092E9008091F000877F8093F00078947C
:105390000E94E8291092E9008091F00088608093D3
:1053A000F000CD2BCF70C093E900FF91EF91DF911A
:1053B000CF91BF91AF919F918F917F916F915F91AD
:1053C0004F913F912F910F900FBE0F901F90189506
:1053D0001F93CF93DF93CDB7DEB7AA970FB6F8949C
:1053E000DEBF0FBECDBFECEDF2E088E08E0F9091F6
:1053F000F10091938E13FBCF0E94C3248091E800AB
:1054000083FF28C18091DC029091DD02492F50E09A
:105410004A30510508F01EC1FA01E556FF4F0C94C1
:10542000C62B803821F0823809F014C108C0809161
:10543000D8029091D902992389F082600FC080919F
:10544000E0028F70873008F005C18093E9008091F9
:10545000EB0085FB882780F91092E9009091E80025
:10546000977F9093E8008093F1001092F100D0C0F4
:10547000282F2D7F09F0EEC0882319F0823061F0CB
:10548000E9C08091DE02813009F0E4C0933009F078
:1054900080E08093D9022EC08091DE0281112AC063
:1054A0008091E0028F702FEF280F263008F0D2C0D5
:1054B0008093E9002091EB0020FF1CC0933021F481
:1054C0008091EB00806214C09091EB00906190930A
:1054D000EB0021E030E0A90102C0440F551F8A957E
:1054E000E2F74093EA001092EA008091EB008860B6
:1054F0008093EB001092E9008091E800877F809311
:10550000E8000E940628A6C08111A4C01091DE0206
:105510001F778091E3008078812B8093E300809156
:10552000E800877F8093E8000E9406288091E800C9
:1055300080FFFCCF8091E30080688093E30011112D
:1055400002C082E001C083E08093DB0283C0805808
:10555000823008F07FC08091DE029091DF028C3DA6
:1055600053E0950779F583E08A838AE289834FB710
:10557000F894DE01139620E03EE051E2E32FF0E0E4
:1055800050935700E49120FF03C0E295EF703F5F16
:10559000EF708E2F90E0EA3010F0C79601C0C096F1
:1055A0008D939D932F5F243149F74FBF8091E80081
:1055B000877F8093E8006AE270E0CE0101960E9446
:1055C0000D2715C06091E0027091E102AE014F5FBE
:1055D0005F4F0E94F225BC01892BE1F19091E80018
:1055E000977F9093E80089819A810E94702780912B
:1055F000E8008B778093E8002DC0803859F58091C2
:10560000E800877F8093E8008091D7028093F100C3
:105610008091E8008E7773CF81111CC09091DE02DB
:105620009230C0F48091E800877F8093E8009093E7
:10563000D7020E9406288091D702811106C080916E
:10564000E30087FD02C081E001C084E08093DB02BB
:105650000E94AF248091E80083FF0AC08091E80097
:10566000877F8093E8008091EB0080628093EB005D
:10567000AA960FB6F894DEBF0FBECDBFDF91CF91D3
:105680001F9108950895CF938091DB028823A1F0A4
:10569000C091E900CF709091EC00892F817090FD4E
:1056A00080E8C82B1092E9008091E80083FD0E94F9
:1056B000E829CF70C093E900CF910895DB018F9363
:1056C0009F930E94DB2BBF91AF91A29F800D911DF4
:1056D000A39F900DB29F900D1124089587FB082E73
:1056E000062687FD819567FD61950E94E62B0EF4E5
:1056F000919507FC81950895AA1BBB1B51E107C03A
:10570000AA1FBB1FA617B70710F0A61BB70B881F51
:10571000991F5A95A9F780959095BC01CD010895E0
:1057200097FB072E16F4009407D077FD09D00E944E
:105730007C2B07FC05D03EF4909581959F4F0895F2
:10574000709561957F4F0895A1E21A2EAA1BBB1B8D
:10575000FD010DC0AA1FBB1FEE1FFF1FA217B3073D
:10576000E407F50720F0A21BB30BE40BF50B661F53
:10577000771F881F991F1A9469F760957095809517
:1057800090959B01AC01BD01CF010895EE0FFF1F65
:105790000590F491E02D0994A29FB001B39FC00140
:1057A000A39F700D811D1124911DB29F700D811D4D
:1057B0001124911D08950E94CC2BA59F900DB49F9C
:1057C000900DA49F800D911D11240895991B79E0DF
:1057D00004C0991F961708F0961B881F7A95C9F781
:1057E00080950895FC014150504030F0019006161C
:1057F000D1F73197CF010895882799270895F9990E
:10580000FECF92BD81BDF89A992780B50895A6E193
:10581000B0E044E050E00C94392CA8E1B0E042E064
:1058200050E00C94392C262FF999FECF92BD81BD02
:10583000F89A019700B4021639F01FBA20BD0FB6CE
:10584000F894FA9AF99A0FBE08950396272F0E94AA
:10585000142C0E94132C252F0E94142C242F0C94FE
:10586000142C0196272F0E94142C0C94132CDC016D
:10587000CB01FC01F999FECF06C0F2BDE1BDF89A5B
:10588000319600B40D9241505040B8F70895F89405
:02589000FFCF48
:10589200010214141401191A1B1C1D1E1F2021229F
:1058A2006302F3233F24F6233B24292401E200E987
:1058B20000EA00B500B600B700CD008301CC008A33
:1058C20001920194012102230224022502260227C9
:1058D200022A02B300B4006F007000818283F1F4E7
:1058E200F5F6F766369291903733323130C6F0676B
:1058F2003593000102020202060606090909090996
:10590200090F0F0F0F0F0F1515151819191919195E
:1059120019191919192324E200E900EA00B500B6A1
:1059220000B700CD008301CC008A019201940121CD
:1059320002230224022502260227022A02B300B40D
:10594200006F0070008182834022322006CC05EE77
:085952000571058A05AA050094
:00000001FF
